:020000040800F2
:1000000000040020470100087501000807020008ED
:100010000B0200080F020008130200080000000095
:1000200000000000000000000000000017020008AF
:1000300019020008000000001B0200081D02000851
:1000400067010008670100086701000867010008F0
:1000500067010008670100086701000867010008E0
:1000600067010008670100086701000867010008D0
:1000700067010008670100086701000867010008C0
:1000800067010008670100086701000867010008B0
:1000900067010008670100086701000867010008A0
:1000A0006701000867010008670100086701000890
:1000B0006701000867010008670100086701000880
:1000C0006701000867010008670100086701000870
:1000D0006701000877010008670100086701000850
:1000E000F9010008670100086701000867010008BE
:1000F0006701000867010008670100086701000840
:10010000670100086701000867010008670100082F
:10011000670100086701000867010008670100081F
:10012000670100086701000867010008670100080F
:10013000DFF80CD000F03EFF004800470906000839
:1001400048020020704708488047084981F3088822
:1001500007480047FEE7FEE7FEE7FEE7FEE7FEE7AB
:10016000FEE7FEE7FEE7FEE7450100084802002043
:1001700031010008704770B540F22551284800F061
:1001800047FE60B3264800F0E4FDC1B2254805787B
:10019000681C244A10702448415510460078801E7F
:1001A0002149085C0D281AD110460078401E085CD1
:1001B0000A2814D1002404E01B48005D1B4908559F
:1001C000641C184800788442F6D30120184908704E
:1001D00000201649134A127888541249087040F2D8
:1001E00027710F4800F014FE28B1002240F2277159
:1001F0000B4800F04EFD70BD0E48006840F4004012
:100200000C490860704700BFFEE700BFFEE700BF73
:10021000FEE700BFFEE77047704770477047000079
:10022000003801401C0000201800002000000020C1
:100230001900002014040140F0B503460D4616468F
:10024000002729460A2E03D0002008702846F0BD5A
:1002500033B9302001F8010B002008702846F6E77A
:10026000002B03DA2D2001F8010B5B4242F21072E1
:100270000DE093FBF2F404B937B104F1300001F85A
:10028000010B04FB123301270A2092FBF0F2002A33
:10029000EFDC002008702846D9E710B500F060FEBA
:1002A00010BD10B5FFF7F9FF44F24400FD49886125
:1002B000FD48FE49086010BDFA4A926942F0040206
:1002C000F84B9A611A46D26942F00202DA61F74AA3
:1002D000121F126822F07042F44B1B1F1A601A465C
:1002E000126842F030421A60F14A1080121F1180E9
:1002F000EF4A143A128842F4E042ED4B143B1A8064
:100300001A46128842F400621A80E94A0C3A1288AE
:1003100042F01002E64B0C3B1A80DA13E44B2C3B04
:100320001A801A46128842F001021A80704710B5EE
:1003300010B1012824D111E00023DD4C083C2380BA
:10034000DC4B93FBF1F3DA4C23804FF47A7393FB8D
:10035000F1F35343D64C0C34238011E00023D44CEA
:10036000083C238042F2107393FBF1F3D04C2380BE
:10037000642393FBF1F35343CD4C0C34238000BF33
:1003800000BF10BD1FB504464FF4E13000900020BF
:10039000ADF80400ADF80600ADF80800ADF80C00AB
:1003A0000C20ADF80A006946204600F0F8FB012257
:1003B00040F22551C04800F06CFC012240F2277148
:1003C000BD4800F066FC0121BB4800F056FC1FBD93
:1003D0000FB470B586B006460CA8019073E00B9878
:1003E00000785C281CD10B98401C0B9000786E287C
:1003F00009D072280FD10D21304600F0A6FC0B98D1
:10040000401C0B900BE00A21304600F09EFC0B983C
:10041000401C0B9003E00B98401C0B9000BF4BE07E
:100420000B980078252840D10B98401C0B90007841
:10043000642818D0732833D1019810C801900BE0BC
:100440002178304600F081FC00BF4021304600F0AA
:10045000D3FC0028F9D0641C20780028F0D10B9838
:10046000401C0B9020E0019820C801900A2202A9AC
:100470002846FFF7E1FE02AC0BE02178304600F0A1
:1004800064FC00BF4021304600F0B6FC0028F9D0E3
:10049000641C20780028F0D10B98401C0B9003E0DE
:1004A0000B98401C0B9000BF06E00B9810F8011B46
:1004B0000B90304600F049FC00BF4021304600F070
:1004C0009BFC0028F9D00B980078002887D106B053
:1004D00070BC5DF814FB01B502E00098401E00906E
:1004E00000980028F9D108BD10B5044634B1012C9C
:1004F00010D0022C1AD0032C30D123E06F480068B2
:100500000A306E49086001206D4908706D48FFF798
:10051000E2FF24E0694800680A3868490860012061
:10052000674908706748FFF7D6FF18E0664800681B
:10053000401C654908600120614908706348FFF765
:10054000CAFF0CE060480068401E5F490860012057
:100550005B4908705D48FFF7BEFF00E000BF00BFC9
:1005600056480068B0F57A7F03DB4FF47A70534940
:10057000086052480068002808DC01204F490860E4
:1005800041F61F414FF47A70FFF796FE4B48006822
:100590000B2808D10A204949086040F2CF214FF4C6
:1005A0007A70FFF789FE48480068642802DB6420FF
:1005B0004549086044480068002802DC00204249A0
:1005C000086010BD7FB505460C460A2202A92846E0
:1005D000FFF732FE0A2269462046FFF72DFE3CA1B6
:1005E0003548FFF7F5FE02A93348FFF7F1FE3BA1BE
:1005F0003148FFF7EDFE69462F48FFF7E9FE3DA1C0
:100600002D48FFF7E5FE7FBDFFF74BFE2A48FFF7B9
:10061000B9FE40F2CF214FF47A70FFF74DFE2A4821
:100620000268264801680020FFF781FE3548FFF781
:1006300052FF35A12048FFF7CBFE234801681F4831
:100640000068FFF7BFFF8FE03D48006884B21C4898
:100650000078D8B119480068012807D11A48026803
:10066000164801680120FFF762FE06E0164802689E
:10067000124801680020FFF75AFE00201049087058
:10068000114801680D480068FFF79CFFA4F57F4002
:10069000DF3828B1102862D0182858D01C2851E023
:1006A00059E0000000100240B444444404080140F2
:1006B0002C040040A08601000038014024000020E6
:1006C0002C00002060AE0A0028000020801A0600DE
:1006D000CAE4B3F6C6B5C2CA3A20000020BAD5D7DC
:1006E000C8202C20D5BCBFD5B1C83A20B0D9B7D6C8
:1006F000D6AE000020202020202020202020200A0C
:100700000000000080841E0020CEE4BABAB9A4B371
:10071000CCB4F3D1A7D6C7C4DCB3B5CDC5B6D3200E
:1007200050574DD0C5BAC5B7A2C9FAC6F72028326E
:100730003031372F30312F3036290D0A0D0A0000A5
:10074000081801400FD10020FFF7CEFE0BE001207A
:10075000FFF7CAFE07E00220FFF7C6FE03E0032012
:10076000FFF7C2FE00BF00BF6EE70000DE48006872
:1007700040F00100DC49086008464068DB49084059
:10078000D949486008460068D9490840D6490860F8
:100790000846006820F4802008600846406820F47D
:1007A000FE004860002088607047CF49096821F446
:1007B0008031CD4A11601146096821F48021116011
:1007C000B0F5803F03D0B0F5802F0ED106E0C649CA
:1007D000096841F48031C44A116007E0C2490968E0
:1007E00041F4A021C04A116000E000BF00BF704783
:1007F00010B501460022002300204A11012A02D12F
:10080000B94C236806E0022A02D1B74C236A01E002
:10081000B54C636A01F01F02012494401C400CB1E6
:10082000012000E0002010BD38B500200090002419
:10083000002500BF3120FFF7DBFF05460098401C74
:1008400000901DB90098B0F5A06FF3D13120FFF7EB
:10085000CFFF08B1012400E00024204638BD014646
:100860000020A14A106820F0F80040EAC1001060A2
:100870007047A04908607047024600209A4B5868AC
:1008800020F47C1042EA01031843974B58607047EC
:1008900098490866704701460020934A506820F046
:1008A00003000843506070478F48406800F00C0018
:1008B0007047014600208C4A506820F0F000084341
:1008C0005060704701460020874A506820F4E0607D
:1008D00008435060704701460020834A506820F466
:1008E000605040EAC1005060704729B17E4A527A98
:1008F00002437D4B5A7204E07B4A527A82437A4B20
:100900005A7270477B49D831086070470146002011
:10091000754A506820F440400843506070470021F9
:10092000714A20321170704A82F82010012802D0DA
:1009300004280AD104E001216B4A2032117005E03D
:100940000521694A2032117000E000BF00BF7047E6
:100950006949086070476449096A0143624A116243
:100960007047654944390860704730B5002100225E
:10097000002400235C4D6D6805F00C0121B10429B1
:1009800005D0082923D105E05C4D056022E05B4DD0
:1009900005601FE0544D6D6805F47012022505EBEB
:1009A0009242514D6D6805F480341CB9544D554345
:1009B00005600BE04C4D6D6805F400351DB1504DE0
:1009C0005543056002E04D4D5543056002E04B4D37
:1009D000056000BF00BF444D6D6805F0F0010909D6
:1009E000484D6B5C0568DD4045603F4D6D6805F422
:1009F000E061090A434D6B5C4568DD4085603A4D16
:100A00006D6805F46051C90A3E4D6B5C4568DD4078
:100A1000C560354D6D6805F44041890B3A4D6B5CFE
:100A2000C568B5FBF3F5056130BD29B12E4A5269A1
:100A300002432D4B5A6104E02B4A526982432A4BF0
:100A40005A61704729B1284A92690243264B9A613C
:100A500004E0254A92698243234B9A61704729B189
:100A6000214AD2690243204BDA6104E01E4AD2696E
:100A700082431D4BDA61704729B11B4AD268024399
:100A8000194BDA6004E0184AD2688243164BDA60E8
:100A9000704729B1144A12690243134B1A6104E0EA
:100AA000114A12698243104B1A617047124940394A
:100AB000086070470F49C86470470B49C871704798
:100AC0000948406A40F08070074948627047014613
:100AD0000020054A92680A400AB1012000E0002087
:100AE0007047014988727047001002400000FFF80B
:100AF000FFFFF6FE000042428004424200127A00EC
:100B000000093D002D0000203D00002010B50446E6
:100B1000D749601A8C422BD006DCD648204498B1C5
:100B2000B0F5806F38D119E0B0F5806F2AD0B0F5FC
:100B30006C4F31D101218803FFF79EFF00214FF454
:100B40008040FFF799FF28E001214804FFF7A1FF4B
:100B500000214FF40030FFF79CFF1EE001218804C4
:100B6000FFF797FF00214FF48020FFF792FF14E07A
:100B70000121C804FFF78DFF00214FF40020FFF78B
:100B800088FF0AE001210805FFF783FF00214FF4E9
:100B90008010FFF77EFF00E000BF00BF10BD2DE911
:100BA000F04786B005460E460024A24600BF00BFAF
:100BB00000272F462C8A4CF6FF700440F08804432F
:100BC0002C82AC894EF6F3100440B088318908437A
:100BD000718908430443AC81AC8A4FF6FF4004405E
:100BE000B0890443AC8201A8FFF7BFFEA248874248
:100BF00002D1DDF810A001E0DDF80CA00AEBCA007C
:100C000000EB0A1031688900B0FBF1F86420B8FBF2
:100C1000F0F004012009642101FB1089322000EB6F
:100C20000910B0FBF1F000F00F0004432C8106B076
:100C3000BDE8F0874FF4E131016000218180C1807F
:100C400001810C21418100218181704710B502464C
:100C50000020108A4FF2FF0318400B884C88234372
:100C60008C882343CC8823431843108210BD002175
:100C7000018041808180C180704721B1828942F426
:100C80000052828104E082894DF6FF731A4082810E
:100C90007047F0B5034600240026002500201846C2
:100CA000C1F3421401F01F06012707FA06F5012CD3
:100CB00001D10C3004E0022C01D1103000E01430DE
:100CC0001AB107682F43076002E00768AF43076067
:100CD000F0BD1AB1838A0B43838202E0838A8B437F
:100CE00083827047028A4FF6F0731A400282028AAA
:100CF0000A430282704782894FF2FF731A40828151
:100D000082890A438281704721B1828942F00202BE
:100D1000828104E082894FF6FD731A408281704718
:100D2000028A4FF6DF731A400282028A0A43028265
:100D3000704721B1028A42F48042028204E0028AB2
:100D40004BF6FF731A4002827047C1F3080282809B
:100D5000704701468888C0F308007047818941F0D8
:100D6000010181817047028BD2B20283028B42EA79
:100D7000012202837047028B02F47F420283028BBE
:100D80000A430283704721B1828A42F020028282A4
:100D900004E0828A4FF6DF731A408282704721B1E5
:100DA000828A42F01002828204E0828A4FF6EF7358
:100DB0001A408282704721B1828A42F00802828200
:100DC00004E0828A4FF6F7731A4082827047828A63
:100DD0004FF6FB731A408282828A0A4382827047EE
:100DE00021B1828A42F00202828204E0828A4FF6B6
:100DF000FD731A40828270470246002013880B4020
:100E00000BB1012000E000207047CA430280704708
:100E100070B502460B460024002100250020C3F3D4
:100E2000421503F01F01012606FA01F1012D02D13E
:100E30009689314006E0022D02D1168A314001E048
:100E4000968A31401C12012606FA04F416883440B2
:100E500011B10CB1012000E0002070BD10B50022DE
:100E600000230A1201249440A3B2DC43048010BD85
:100E7000004C004000BCFFBF003801400CB5002012
:100E8000019000904748006840F480304549086070
:100E900000BF4448006800F4003000900198401CF6
:100EA0000190009818B90198B0F5A06FF1D13D48B4
:100EB000006800F4003010B10120009001E0002033
:100EC00000900098012844D13748006840F0100095
:100ED000354908600846006820F0030008600846AD
:100EE000006840F0020008602E4840682D494860C4
:100EF0000846406848600846406840F480604860A2
:100F00000846406820F47C1048600846406840F479
:100F1000E81048600846006840F08070086000BF34
:100F20002048006800F000700028F9D01D48406893
:100F300020F003001B4948600846406840F002006A
:100F4000486000BF1748406800F00C000828F9D13D
:100F500001E000BFFEE70CBD10B5FFF78FFF10BD2D
:100F600010B51048006840F001000E4908600846BE
:100F700040680E4908400B494860084600680C4923
:100F80000840084908600846006820F4802008608E
:100F90000846406820F4FE00486000208860FFF7A3
:100FA000DBFF10BD00100240002002400000FFF8EF
:100FB000FFFFF6FE064C074D06E0E06840F0010337
:100FC00094E8070098471034AC42F6D3FFF7B4F822
:100FD000F80F00081810000802E008C8121F08C126
:100FE000002AFAD170477047002001E001C1121FAA
:100FF000002AFBD1704700001810000800000020F4
:1010000044000000D80F00085C10000844000020D5
:1010100004020000E80F0008555341525420496E65
:1010200074657272757074204578616D706C6500BE
:101030000000000000000000000000000A000000A6
:10104000320000000000000000010203040102035E
:0C1050000406070809020406080000005E
:0400000508000131BD
:00000001FF
